:100000001DC037C036C005C134C0AEC032C031C01B
:1000100030C0F4C02EC02DC031C12BC02AC000009A
:100020000000370000000000380002020202020255
:1000300001020408102001020000040011241FBE68
:10004000CFE5D2E0DEBFCDBF10E0A0E6B0E0E0EC4F
:10005000F3E002C005900D92A236B107D9F720E077
:10006000A2E6B0E001C01D92AA37B207E1F72DD198
:10007000A5C1C6CF90E0FC01EA5CFF4F2491FC01D2
:10008000E05DFF4F3491FC01E65DFF4FE491EE230C
:10009000A1F0222329F0213089F48AB58F778ABD17
:1000A000F0E0EE0FFF1FEC5DFF4FA591B4918FB70D
:1000B000F894EC91E32BEC938FBF0895223019F460
:1000C0008AB58F7DECCF233021F480B78F7D80BF40
:1000D000E7CF243029F78CB58F7D8CBDE1CF90E040
:1000E000FC01E05DFF4F2491865D9F4FFC018491F0
:1000F000882399F090E0880F991FFC01E25EFF4F82
:10010000A591B491FC01EC5DFF4F859194918FB75F
:10011000F894EC91E22BEC938FBF08953FB7F894DD
:100120008091760090917700A0917800B09179004D
:1001300022B708B601FE05C02F3F19F00196A11D98
:10014000B11D3FBFBA2FA92F982F8827BC01CD0121
:10015000620F711D811D911D43E0660F771F881F7F
:10016000991F4A95D1F708951F920F920FB60F92DB
:1001700011242F933F938F939F93AF93BF938091BD
:10018000720090917300A0917400B091750030914D
:10019000710026E0230F2D3768F129E8230F03961D
:1001A000A11DB11D20937100809372009093730084
:1001B000A0937400B09375008091760090917700C1
:1001C000A0917800B09179000196A11DB11D809396
:1001D000760090937700A0937800B0937900BF9158
:1001E000AF919F918F913F912F910F900FBE0F90E4
:1001F0001F9018950296A11DB11DD4CF1F920F928A
:100200000FB60F921124B09A0F900FBE0F901F904F
:1002100018951F920F920FB60F9211242F933F93B0
:100220008F939F9380916000909161008536910536
:10023000F4F48091600090916100019690936100C8
:100240008093600020916F00309170008091600079
:10025000909161008217930778F0C2989F918F91D7
:100260003F912F910F900FBE0F901F9018951092F5
:10027000610010926000E6CFC29AF0CF1F920F92F9
:100280000FB60F9211242F933F934F935F936F9369
:100290007F938F939F93AF93BF93EF93FF9381B51A
:1002A000806481BD81E0E6DEFF91EF91BF91AF9167
:1002B0009F918F917F916F915F914F913F912F917E
:1002C0000F900FBE0F901F90189581B781BF789443
:1002D0008AB582608ABD8AB581608ABD83B7887F0E
:1002E000826083BF789489B7826089BF80B7807F3E
:1002F00080BF80B7806880BF80B7806480BF8CB5C6
:1003000080648CBD8FEF8DBD80B7846080BF86B167
:100310008877836886B9379A87B5826087BD07B4C6
:1003200000FEFDCF87B5846087BD84B7877F84BF1B
:1003300081B5886181BD81E381BD81B5806481BD66
:1003400010BE1FBC82E08CBD81E08EBD1BBC1DBCFD
:1003500080E289BF88E880BF789480E0C0DE81E0D9
:10036000BEDE82E0BCDE07B400FE02C082E082DEB8
:1003700011E010936C00D2DEEB0180E1C82E87E221
:10038000D82EE12CF12CCADE6C1B7D0B683E73402D
:1003900078F0C114D104E104F10411F4B29AE9CF68
:1003A00081E0C81AD108E108F108C851DC4FEBCF51
:1003B000C114D104E104F10431F7F0CFF894FFCF78
:0203C0006400D7
:00000001FF
